:100000000C94FE000C9426010C9426010C94CF1243
:100010000C94CF120C94CF120C9426010C94260150
:100020000C9426010C9426010C9426010C942601B4
:100030000C9426010C9426010C9426010C942601A4
:100040000C942D120C9426010C949D120C94771292
:100050000C9426010C9426010C9426010C94260184
:100060000C9426010C9426014E414E494E49545998
:10007000494E46CDCCCC3D0AD7233C17B7D1387773
:10008000CC2B329595E6241FB14F0A000020410089
:1000900000C84200401C4620BCBE4CCA1B0E5AAED3
:1000A000C59D7400407A10F35A00A0724E180900E2
:1000B00010A5D4E80000E87648170000E40B5402CD
:1000C0000000CA9A3B000000E1F505000080969808
:1000D00000000040420F000000A086010000001058
:1000E0002700000000E8030000000064000000009A
:1000F000000A00000000000100000000002C76D87B
:1001000088DC674F0823DFC1DFAE59E1B1B796E560
:10011000E3E453C63AE651997696E8E6C28426EBC4
:10012000898C9B62ED407C6FFCEFBC9C9F40F2BAD7
:10013000A56FA5F490055A2AF75C936B6CF9676D6F
:10014000C11BFCE0E40D47FEF520E6B500D0ED90C4
:100150002E0300943577050080841E080000204E91
:100160000A000000C80C333333330F986E1283112A
:1001700041EF8D2114893BE65516CFFEE6DB18D101
:10018000844B381BF77C1D901DA4BBE424203284D3
:10019000725E228100C9F124ECA1E53D2700000038
:1001A00000240027002A00000000080002010000CF
:1001B000030407000000000000000000000000230E
:1001C000002600290000000000250028002B000464
:1001D00004040404040404020202020202030303EE
:1001E00003030301020408102040800102040810E8
:1001F00020010204081020008C13D91A11241FBEFC
:10020000CFEFD8E0DEBFCDBF25E0A0E5B3E001C071
:100210001D92A937B207E1F713E0A0E0B1E0ECE8E6
:10022000F8E402C005900D92A035B107D9F710E0AF
:10023000CDEFD0E004C02197FE010E94EF21CC3F1A
:10024000D107C9F70E94B9140C9439240C9400000A
:10025000CF92DF92EF92FF92CF93DF93B091C904D8
:10026000A0E08111AB2F8091CA0490E0880F991F04
:10027000AC0145545E4FC090CF04D090D004E090C4
:10028000D104F090D20430E020E0FA01C591D4917D
:10029000E881B90190E080E0EB23EA130AC02F5F08
:1002A0003F4F6C157D058E059F0578F36FEF7FEF4F
:1002B000CB01DF91CF91FF90EF90DF90CF90089529
:1002C000833081F028F4813099F08230A9F00895CC
:1002D0008730A9F08830C9F08430B1F48091800073
:1002E0008F7D03C0809180008F7780938000089578
:1002F00084B58F7784BD089584B58F7DFBCF8091C1
:10030000B0008F778093B00008958091B0008F7D0A
:10031000F9CFCF93DF93282F30E0F901E955FE4F55
:100320008491F901ED51FE4FD491F901E153FE4F53
:10033000C491CC23A1F081110E946001EC2FF0E068
:10034000EE0FFF1FE554FE4FA591B491EC91ED2304
:1003500081E090E009F480E0DF91CF91089580E0A2
:1003600090E0FACF1F93CF93DF93282F30E0F9016D
:10037000E955FE4F8491F901ED51FE4FD491F901F9
:10038000E153FE4FC491CC23A9F0162F81110E9496
:100390006001EC2FF0E0EE0FFF1FEB53FE4FA59135
:1003A000B4918FB7F894EC91111108C0D095DE2369
:1003B000DC938FBFDF91CF911F910895DE2BF8CF93
:1003C000CF93DF9390E0FC01ED51FE4F24918153D8
:1003D0009E4FFC0184918823C9F090E0880F991FFB
:1003E000FC01E356FE4FA591B491FC01EB53FE4F87
:1003F000C591D49161110DC09FB7F8948C9120954F
:1004000082238C938881282328839FBFDF91CF91FB
:100410000895623051F49FB7F8943C91822F8095F3
:1004200083238C93E8812E2BEFCF8FB7F894EC9138
:100430002E2B2C938FBFEACF8E3008F08E50877012
:10044000806480937C0080917A00806480937A003D
:1004500080917A0086FDFCCF8091780090917900A0
:1004600008953FB7F8948091210490912204A091BF
:100470002304B091240426B5A89B05C02F3F19F092
:100480000196A11DB11D3FBFBA2FA92F982F882714
:10049000BC01CD01620F711D811D911D42E0660FEF
:1004A000771F881F991F4A95D1F708958F929F92C1
:1004B000AF92BF92CF92DF92EF92FF926B017C01DD
:1004C0000E9431024B015C01C114D104E104F1042A
:1004D000B9F00E943102681979098A099B09683EBE
:1004E00073408105910580F321E0C21AD108E1082B
:1004F000F10888EE880E83E0981EA11CB11CE4CFA1
:10050000FF90EF90DF90CF90BF90AF909F908F9033
:1005100008952FB7F89460911D0470911E04809186
:100520001F04909120042FBF0895CF92DF92EF9285
:10053000FF920F931F93CF93DF93CDB7DEB7C054D5
:10054000D1400FB6F894DEBF0FBECDBF0E94890226
:100550000091CB041091CC042091CD043091CE04B5
:100560006B017C01C01AD10AE20AF30A97018601E5
:10057000003D17402105310590F48091D304C05C03
:10058000DE4F0FB6F894DEBF0FBECDBFDF91CF9127
:100590001F910F91FF90EF90DF90CF90089560939F
:1005A000CB047093CC048093CD049093CE0410922E
:1005B000C6041092C5041092C4041092C304109291
:1005C000C20462E08091C7040E94E00161E070E033
:1005D00080E090E00E94560261E08091C7040E9492
:1005E000E00160E08091C7040E94B2018091C804DC
:1005F0008551823020F58BE291E10197F1F762E0BD
:100600008091C7040E94E0018091D40490E0823080
:10061000910538F0880F991F880F991F059701974A
:10062000F1F7F89480E00E9428016F3F7F4F8F4FD1
:100630009F4F61F41092D304789480E0A0CF64E1DE
:1006400070E080E090E00E945602D9CF81E00E94E5
:1006500028016F3F7F4F8F4F9F4F61F38E010F5FD8
:100660001F4F6E012FEBC21A2EEFD20A780180E0E5
:100670000E942801F701608371838283938381E064
:100680000E942801F7016483758386839783F8E0CD
:10069000EF0EF11CEC14FD0451F7789430E020E0EB
:1006A000F801C080D180E280F38044815581668169
:1006B0007781FFEFCF16DF06EF06FF0631F04F3FE1
:1006C0008FEF58076807780719F41092D304B5CF55
:1006D000F90183E0F595E7958A95E1F7EE53FB4F35
:1006E0008081880FC416D506E606F70610F18083D0
:1006F0002F5F3F4F085F1F4F2832310589F6409129
:10070000C6042091C2048091C304280F3327331FED
:100710008091C404280F311D8091C504820F932F4E
:10072000911D99274817190681F681E08093D3041B
:1007300026CF8160DCCFCF93DF93EC0188E191E09D
:100740009983888381E0888B1F861E861A861B8684
:100750001C861D860E9489026E837F838887998705
:10076000DA8BC98B1A821B821C821D826A877B8767
:100770008C879D87DF91CF910895FC01428353833D
:100780006483758386819781A085B185840F951FC9
:10079000A61FB71F82879387A487B5870895FC019A
:1007A000248135816217730748F480819181009715
:1007B00029F0860F971FFC018081089580E008953D
:1007C0000895AF92BF92CF92DF92EF92FF920F9374
:1007D0001F93CF93DF936C017B018B01040F151FD7
:1007E000EB015E01AE18BF08C017D10759F069913F
:1007F000D601ED91FC910190F081E02DC6010995A3
:10080000892B79F7C501DF91CF911F910F91FF904F
:10081000EF90DF90CF90BF90AF900895FC01538D83
:10082000448D252F30E0842F90E0821B930B5417CA
:1008300010F0CF96089501970895FC01918D828D57
:10084000981761F0A28DAE0FBF2FB11D5D968C91F0
:10085000928D9F5F9F73928F90E008958FEF9FEF2F
:100860000895FC01918D828D981731F0828DE80FEB
:10087000F11D858D90E008958FEF9FEF0895FC01A5
:10088000918D228D892F90E0805C9F4F821B910972
:100890008F739927089585E294E00E943F0421E038
:1008A000892B09F420E0822F089580E090E0892BC5
:1008B00029F00E944B0481110C9400000895FC0162
:1008C000A48DA80FB92FB11DA35ABF4F2C91848DB1
:1008D00090E001968F739927848FA689B7892C930E
:1008E000A089B1898C91837080648C93938D848D61
:1008F000981306C00288F389E02D80818F7D808364
:100900000895EF92FF920F931F93CF93DF93EC0123
:1009100081E0888F9B8D8C8D98131AC0E889F989A6
:10092000808185FF15C09FB7F894EE89FF896083A9
:10093000E889F98980818370806480839FBF81E02A
:1009400090E0DF91CF911F910F91FF90EF9008956C
:10095000F62E0B8D10E00F5F1F4F0F731127E02E47
:100960008C8D8E110CC00FB607FCFACFE889F9897F
:10097000808185FFF5CFCE010E945F04F1CFEB8D22
:10098000EC0FFD2FF11DE35AFF4FF0829FB7F89453
:100990000B8FEA89FB8980818062CFCFCF93DF9371
:1009A000EC01888D8823B9F0AA89BB89E889F98987
:1009B0008C9185FD03C0808186FD0DC00FB607FCBC
:1009C000F7CF8C9185FFF2CF808185FFEDCFCE01EF
:1009D0000E945F04E9CFDF91CF91089520919203A7
:1009E000309193032817390771F490919003809107
:1009F0009103981741F0E0919003F0E0E05BFC4F29
:100A0000808190E008958FEF9FEF08950895EF9211
:100A1000FF920F931F93CF93DF93DC015C96ED90D1
:100A2000FC905D97E114F10479F481E090E0139675
:100A30009C938E93129790E080E0DF91CF911F916D
:100A40000F91FF90EF9008955196ED91FC91529780
:100A500050968C915097982F90950FB75E962C9149
:100A60005E97122F127021FD6095F894208111235A
:100A700019F1282B2083E7012197F1F728E0462F71
:100A800050E0308160FF1AC0382B3083E701219796
:100A9000F1F7BA0175956795215089F7112381F017
:100AA0008081892380830FBF5C968D919C910197F3
:100AB000F1F781E090E0C1CF2923DCCF3923E5CFE6
:100AC0009081892BEFCF20919203309193032817C7
:100AD000390761F4809191032091900390E0805C4C
:100AE0009F4F821B91098F739927089590E080E0B2
:100AF0000895209192033091930328173907B9F490
:100B00009091900380919103981789F0E091900360
:100B1000F0E0E05BFC4F80812091900330E02F5F9C
:100B20003F4F2F7333272093900390E008958FEF6A
:100B30009FEF08950F931F930E94890260932905E8
:100B400070932A0580932B0590932C0581E295E004
:100B50000E94790597FF1DC00E9489020091290516
:100B600010912A0520912B0530912C05601B710BEB
:100B7000820B930B009125051091260520912705E6
:100B8000309128056017710782079307F8F28FEFFD
:100B90009FEF1F910F9108950F931F93CF93DF93B2
:100BA000EC01EE85FF85309709F009950E948902D6
:100BB0006E837F83888799870A811B812C813D8181
:100BC000DC01CB01800F911FA21FB31F8A879B8777
:100BD000AC87BD87DF91CF911F910F9108950F933F
:100BE0001F93FC010285138524853585401B510B1D
:100BF000620B730B80E077FF80891F910F9108953E
:100C0000CF93DF93EC010E948902AB01BC01CE01BE
:100C1000DF91CF910C94EF0590E080E00895CF93A1
:100C2000DF93EC0160E08E810E94B20161E08E8171
:100C30000E94B20160E08E810E94B2018BE891E0D7
:100C40000197F1F7DF91CF910895CF92DF92EF9264
:100C5000FF920F931F93CF93DF936C017C0187E08A
:100C6000E80EF11CD0E0C0E0062F10E0B8010C2E19
:100C700002C0759567950A94E2F76170F70181915A
:100C80007F010E94B2012196C430D10579F7C601D7
:100C9000DF91CF911F910F91FF90EF90DF90CF9058
:100CA0000C940F06CF92DF92EF92FF920F931F9357
:100CB000CF93DF93EC01F62E642F8C810E94B2015A
:100CC0008D818F3F19F060E00E94B2010F2D10E07E
:100CD0008F8584FF25C06E0187E0C80ED11CF12CE2
:100CE000E12CB8010E2C02C0759567950A94E2F7C5
:100CF0006170F60181916F010E94B201FFEFEF1A5E
:100D0000FF0A88E0E816F10461F7CE01DF91CF9188
:100D10001F910F91FF90EF90DF90CF900C940F06F2
:100D2000B80184E0759567958A95E1F7CE010E9438
:100D300025066F2DCE01DF91CF911F910F91FF906E
:100D4000EF90DF90CF900C94250640E0682F80E470
:100D500095E00C94520690915305691710F06FEFCF
:100D6000690FE62FF0E0E05CFA4F9489890F806804
:100D70000C94A506CF93DF93823029F490914F0510
:100D8000986090934F05809353051092540580E42A
:100D90008093550580E18093560580E58093570543
:100DA00061E0809144050E94E001809145058F3FFC
:100DB00019F061E00E94E00161E0809146050E9427
:100DC000E001C0E4D5E09E012054354080914F05FC
:100DD00084FD0BC084E090E021962817390744F485
:100DE00061E08E810E94E001EECF88E090E0F4CFD8
:100DF0008BE39DE00197F1F760E0809144050E944C
:100E0000B20160E0809146050E94B20180914505E3
:100E10008F3F19F060E00E94B20180914F0584FD80
:100E200039C063E080E495E00E942506CBE4D6E477
:100E3000CE010197F1F763E080E495E00E9425067A
:100E40002197F1F763E080E495E00E94250683E5B1
:100E500092E00197F1F762E080E495E00E942506B8
:100E600080914F0580620E94A50684E08093500522
:100E70008CE00E94A50681E00E94A5068BE39FE11D
:100E80000197F1F782E08093510586E0DF91CF91E1
:100E90000C94A50680620E94A5068BE496E4019757
:100EA000F1F780914F0580620E94A50683E592E0EC
:100EB0000197F1F780914F0580620E94A506D0CF7F
:100EC00041E00E94520681E090E00895FB0101900C
:100ED0000020E9F73197AF01461B570BDC01ED917C
:100EE000FC910280F381E02D0994CF93DF93FC0104
:100EF000448155816081718185E294E00E94E10323
:100F0000EC016EE471E085E294E00E9466078C0FCC
:100F10009D1FDF91CF9108958F929F92AF92BF92C4
:100F2000EF92FF920F931F93CF93DF93CDB7DEB76E
:100F3000A1970FB6F894DEBF0FBECDBF7C01FA01BA
:100F4000CB0119A2223008F42AE08E010F5D1F4F59
:100F5000822E912CB12CA12CBF01A50194010E94DD
:100F6000CD21F901CA016A300CF5605DD8016E939C
:100F70008D01232B242B252B79F790E080E010970F
:100F800021F0BD01C7010E946607A1960FB6F89433
:100F9000DEBF0FBECDBFDF91CF911F910F91FF90AC
:100FA000EF90BF90AF909F908F900895695CDECFD7
:100FB000CF92DF92EF92FF920F931F93CF93DF9325
:100FC000EC016A017B01E881F9810190F081E02D5B
:100FD0006DE209958C0144275527BA014C195D092A
:100FE0006E097F092AE0CE010E948C07800F911FB5
:100FF000DF91CF911F910F91FF90EF90DF90CF90F5
:1010000008950F931F93CF93DF93EC01AB01770FFC
:10101000660B770B77FF0FC00E94D8078C016EE438
:1010200071E0CE010E946607800F911FDF91CF9182
:101030001F910F9108952AE00E948C07EFCFAB011A
:10104000770F660B770B77FD0C94D8072AE00C948A
:101050008C070F931F93CF93DF93EC010E946607D9
:101060008C016EE471E0CE010E946607800F911F33
:10107000DF91CF911F910F9108956115710511F0C6
:101080000C94660790E080E00895CF93DF938EE0A4
:101090000E948901EC018FE00E948901892B39F5BA
:1010A00061E571E085E294E00E943D08CD2BF9F402
:1010B00061E08DE00E94B20167E571E085E294E0B5
:1010C0000E943D0861E089E00E94AB0665E671E0A0
:1010D00080E495E00E943D0868E873E180E090E0DC
:1010E0000E9456028EE00E948901EC01DFCF60E091
:1010F0008DE00E94B2016DE671E085E294E00E940D
:101100003D0861E089E00E94AB0665E771E080E49C
:1011100095E0DF91CF910C943D084F925F926F92D2
:101120007F928F929F92AF92BF92CF92DF92EF9277
:10113000FF92CF93DF9300D000D000D0CDB7DEB7C1
:101140000E949502882349F08091C8048B3028F0D2
:101150008D3040F085518230C0F160E070E080EC6D
:101160009FE71CC06091C30470E090E080E00E94A3
:10117000421F2DEC3CEC4CEC5DE30E94A11F6B0187
:101180007C016091C20470E090E080E00E94421F08
:101190009B01AC01C701B6010E94B4200E949221BC
:1011A00069837A838B839C830E949502882341F014
:1011B0008091C8048C3009F4B6C0C8F48B3091F12A
:1011C00060E070E080EC9FE757C06091C2047091CE
:1011D000C30476276727762790E080E00E94401FAF
:1011E0002DEC3CEC4CEC5DE30E94A11FD7CF855168
:1011F000823030F7F090C4046F2D70E0762F6627B0
:1012000066277F778091C504682B90E080E00E947C
:10121000401F2DEC3CEC4CEC5DE30E94A11FF7FE5F
:101220002BC0A1C06091C40470E090E080E00E94F7
:10123000401F6B017C012091C5042D8327FF0AC04C
:10124000AC019B0160E070E080E89FEB0E94B3205E
:101250006B017C013D813F70632F70E090E080E086
:101260000E94421F2DEC3CEC4CEC5DE30E94A11F60
:10127000A70196010E94B4200E9492216B017E83F7
:101280006D8329813A81B901330F880B990B0E9434
:10129000421F2B013C01AC019B010E94C82181111E
:1012A00010C0B6010D2C000C880B990B0E94421F38
:1012B0004B015C01AC019B010E94C821882309F409
:1012C00054C06DE771E085E294E00E94290860E077
:1012D00080E00E94AB0665E971E080E495E00E9441
:1012E0003D0880910C0190910D012D813E8161E0BE
:1012F000821793070CF060E08BE026960FB6F89407
:10130000DEBF0FBECDBFDF91CF91FF90EF90DF909A
:10131000CF90BF90AF909F908F907F906F905F9095
:101320004F900C94B2018091C4048D83682F70E0BB
:1013300090E080E00E94401F6B017C016091C50439
:101340006F7070E090E080E00E94421F2DEC3CEC5A
:101350004CEC5DE30E94A11FA70196010E94B420FE
:101360002D8127FF89CF905887CF6FE971E085E203
:1013700094E00E943D0869817A8185E294E00E94B0
:101380001F086FEA71E085E294E00E94290862EB91
:1013900071E085E294E00E943D08B60185E294E0A8
:1013A0000E941F0865EC71E085E294E00E94290824
:1013B00060E080E00E94AB0668EC71E080E495E0BC
:1013C0000E943D0869817A8180E495E00E941F08AF
:1013D0006DEC71E080E495E00E943D08B60180E488
:1013E00095E00E941F084092A0035092A1036092D2
:1013F000A2037092A3038092A4039092A503A092EB
:10140000A603B092A7036DCFCF92DF92EF92FF9227
:10141000CF93DF9380E10E941C02EC01BC01990F85
:10142000880B990B0E94421F6B017C01AC019B0150
:101430000E94C8218823B1F06FEC71E085E294E04E
:101440000E94290860E08AE00E94AB0661EF71E02B
:1014500080E495E0DF91CF91FF90EF90DF90CF9007
:101460000C943D0867EF71E085E294E00E943D082E
:10147000BE0185E294E00E940108C092A803D092C8
:10148000A903E092AA03F092AB0360E08AE00E9415
:10149000AB068091080190910901C817D9073CF467
:1014A00061E08AE00E94B2016FEF71E0D1CF60E0AD
:1014B0008AE00E94B20166E072E0CACFCF93DF9368
:1014C00081E10E941C02EC01BC01990F880B990B71
:1014D0000E94421F6093AC037093AD038093AE03F0
:1014E0009093AF039B01AC010E94C821882391F027
:1014F0006DE072E085E294E00E94290861E080E0FE
:101500000E94AB066EE272E080E495E0DF91CF913D
:101510000C943D0880910A0190910B018C179D0756
:1015200014F561E08CE00E94B20166E372E085E2AE
:1015300094E00E943D0861E080E00E94AB0666E313
:1015400072E080E495E00E943D0860910001709196
:101550000101072E000C880B990B0E94560260E0D7
:101560008CE00E94B20160E08CE00E94B2016FE367
:1015700072E085E294E00E943D08BE0185E294E0BD
:101580000E94010861E080E00E94AB066AE472E01C
:10159000BBCFCF93DF93DC0114962D913C9115972F
:1015A000232B79F0FB01CD91DC9160817181CE011B
:1015B0000E941F24009729F08C1B9D0BDF91CF9177
:1015C00008958FEF9FEFFACFCF93DF93FC01248133
:1015D00035814217530788F4C081D181062E000C53
:1015E000770BCE01840F951F0E94F523009729F0F9
:1015F0008C1B9D0BDF91CF9108958FEF9FEFFACF5A
:101600000F931F93CF93DF938C01EB01FC0180813B
:1016100091810097E1F06881798161157105A9F0E8
:10162000428153812C813D814217530770F00E9403
:1016300009248C819D81F801958384831D821C82FD
:10164000DF91CF911F910F9108950E94912288817F
:101650009981F801918380838A819B81938382831E
:101660008C819D8195838483198218821B821A82C2
:10167000E5CFCF93DF93EC0188819981009711F03A
:101680000E949122198218821D821C821B821A825A
:10169000DF91CF910895FC0180819181009711F035
:1016A0000C94912208950F931F93CF93DF93EC0135
:1016B00088819981009759F02A813B812617370745
:1016C00030F081E0DF91CF911F910F9108958B0150
:1016D0006F5F7F4F0E941A23009759F09983888388
:1016E0001B830A832C813D81232B59F7FC01108237
:1016F000E8CF80E0E7CFEF92FF920F931F93CF9355
:10170000DF936115710541F480E0DF91CF911F9166
:101710000F91FF90EF90089541155105B1F07B01B5
:10172000EC010C811D81040F151FB8010E94530BA1
:10173000882351F3288139818C819D81B701820FE3
:10174000931F0E9409241D830C8381E0DECFCF9379
:10175000DF93EC01FB0144815581608171810E941E
:101760007B0B811103C0CE010E94390BCE01DF91AA
:10177000CF910895EF92FF920F931F93CF93DF9332
:10178000CDB7DEB728970FB6F894DEBF0FBECDBF3A
:101790007C01CB014AE08E010F5F1F4FB8010E9410
:1017A000491BF80101900020E9F73197AF01401B78
:1017B000510BB801C7010E947B0B28960FB6F89415
:1017C000DEBF0FBECDBFDF91CF911F910F91FF9074
:1017D000EF900895CF93DF9300D0CDB7DEB7698344
:1017E0001A8241E050E0BE016F5F7F4F0E947B0B89
:1017F0000F900F90DF91CF910895FB010190002091
:10180000E9F73197AF01461B570B0C947B0BEF9216
:10181000FF920F931F93CF93DF93EC017B018A011B
:10182000BA010E94530B81110BC0CE010E94390BEB
:10183000CE01DF91CF911F910F91FF90EF9008950E
:101840001D830C83B701888199810E940924F0CF00
:10185000FB0101900020E9F73197AF01461B570BC0
:101860000C94070CCF93DF93EC016115710531F0F7
:101870000E94280CCE01DF91CF9108950E94390B70
:10188000F9CFEF92FF920F931F93CF93DF93CDB7D2
:10189000DEB7A1970FB6F894DEBF0FBECDBF7C01B7
:1018A000CB01BA01F70111821082138212821582D4
:1018B00014828E010F5F1F4F22E044E00E94001B44
:1018C000BC01C7010E94320CA1960FB6F894DEBF8E
:1018D0000FBECDBFDF91CF911F910F91FF90EF9081
:1018E0000895FC01118210821382128215821482E3
:1018F0006115710551F0FB0101900020E9F7319766
:10190000AF01461B570B0C94070C0895CF93DF9340
:10191000EC01663599F4403288F484E0489FF00188
:101920001124E456FC4F4081518162817381CE01C4
:101930000E94410CCE01DF91CF91089560E571E0E6
:10194000CE010E94710CF6CFAF92BF92CF92DF9280
:10195000EF92FF920F931F93CF93DF935C016B0184
:101960007A0189012417350720F48F2D7901042F7E
:10197000182F60E571E0C5010E94710CD601149624
:10198000CD91DC91EC16FD06C8F40C171D0708F488
:10199000E801D601ED91FC911197EC0FFD1F10812C
:1019A00010826D917C916E0D7F1DC5010E94320CDD
:1019B000F60180819181C80FD91F1883C501DF917D
:1019C000CF911F910F91FF90EF90DF90CF90BF903C
:1019D000AF9008954F925F926F927F92AF92BF92B5
:1019E000CF92DF92EF92FF920F931F93CF93DF93EB
:1019F00000D000D000D0CDB7DEB75C016B0160E550
:101A000071E0CE0101960E94710C0E9489022B01A7
:101A10003C010D2C000CEE08FF080E94890264199D
:101A20007509860997096C157D058E059F0508F0D7
:101A300046C081E295E00E9463051816190694F4E9
:101A400081E295E00E947905182F682F85E294E0E5
:101A50000E948104112369F3612FCE0101960E9437
:101A6000EA0BE7CF8D819E81892BB9F209811A811A
:101A7000F50160817181C8010E941F24009769F2FD
:101A8000801B910B019649F211E0CE0101960E9454
:101A90004B0B812F26960FB6F894DEBF0FBECDBF3D
:101AA000DF91CF911F910F91FF90EF90DF90CF903A
:101AB000BF90AF907F906F905F904F90089510E02F
:101AC000E4CF3F924F925F926F927F928F929F925C
:101AD000AF92BF92CF92DF92EF92FF920F931F933C
:101AE000CF93DF93CDB7DEB7A5970FB6F894DEBFDF
:101AF0000FBECDBF81E295E00E946305892B09F4FA
:101B00003BC460E571E0CE0101967C010E94710C3E
:101B10000E949A0597FD08C08A30910529F0682F28
:101B2000C7010E94EA0BF4CFB7018FE595E00E9450
:101B3000000BC7010E944B0B1A8219821C821B8268
:101B40001E821D828AE088871986BE01685F7F4FEA
:101B5000C7010E94280C6FE575E0C7010E94A70B22
:101B6000FC01448155816081718185E294E00E948D
:101B7000E103C7010E944B0B63E572E0C7010E94BD
:101B8000710CB7018FE595E00E94C90A8C01C7016D
:101B90000E944B0B0F3F100709F4EEC3B8016B5FB7
:101BA0007F4F8FE595E00E94CF03A82E880FBB08DA
:101BB00080E3A81AB10869E572E0C7010E94710CC0
:101BC000B7018FE595E00E94C90A8C01C7010E9408
:101BD0004B0B40916305509164054115510509F186
:101BE000B8016F5F7F4FE9F04617570708F4BA0155
:101BF00080915F0590916005461B570B50936405DB
:101C000040936305680F791F0E941024E0915F05DF
:101C1000F09160058091630590916405E80FF91FCC
:101C2000108260E571E085E695E00E94280C50E0A6
:101C300040E061E28FE595E00E94E40A8C010F3FED
:101C4000100709F055C06BE572E085E695E00E944B
:101C5000280C6DE772E0C7010E94710C65E675E023
:101C6000C7010E94A70B0E947507C7010E944B0B7A
:101C70008091690590916A05892B09F472C36AE81D
:101C800072E0CE0108960E94710CB501CE01089653
:101C90000E94BA0B6BE273E0CE0108960E94FD0B26
:101CA0004AE0B7018091690590916A050E94691B1D
:101CB000F70101900020E9F73197AF014E195F0954
:101CC000B701CE0108960E947B0B6EE471E0CE0155
:101CD00008960E94FD0B81E295E00E9463058C014D
:101CE000892B09F4FFC281E295E00E947905F3CFC8
:101CF00080915C0590915D05892B09F45CC3980186
:101D000050E040E06FE575E0C7010E94A40C20910F
:101D10005C0530915D058D819E8128173907F9F4A6
:101D2000809158059091590569817A81009709F44D
:101D30003BC361157105E9F4232B09F439C3FC0198
:101D4000808190E009C0232B09F432C3FB0180811C
:101D500090E0919581959109892B09F429C362E658
:101D600072E085E695E00E94280CC7010E944B0BAB
:101D700070CF0E940024F0CF50E040E06DE3CE0130
:101D80004A960E94E40A8C01823091050CF485C1C8
:101D90009C0141E050E0BE01665E7F4FCE0144965B
:101DA0000E94A40C8C899D89D12C312C009721F0A4
:101DB0000E94221BD62E372E2E8D3F8DA8014F5FFD
:101DC0005F4FBE01665E7F4FCE010E960E94A40C4F
:101DD0006A887B886114710409F46EC166E073E05F
:101DE0008E859F850E9400248C01892B09F064C197
:101DF00060916D0570916E05CE0108960E94710C80
:101E000091E5C91609F4D4C09C15E4F1E1E4CE16BD
:101E100009F4BFC0FFE4CF1609F4D4C0E0916D050A
:101E2000F0916E058C859D85892B09F01EC1309738
:101E300009F427C18081882309F423C161E285E682
:101E400095E00E94EA0B6C2D85E695E00E94EA0B76
:101E50006D2D732D85E695E00E94BA0B60E373E06B
:101E600085E695E00E94FD0B4C855D85688579854A
:101E700085E695E00E947B0B64E285E695E00E9492
:101E8000EA0BFFC084E5C81621F196E5C912C6CF5A
:101E9000E0917105F0917205309761F04D2D66E586
:101EA000C7010995B701CE0108960E94000BC70132
:101EB0000E944B0B8C859D8560916D0570916E0520
:101EC000FB01892B09F0D1C0CE0108960E94320C8B
:101ED000A5CFE0917105F0917205309709F49ECF7E
:101EE0004D2D64E5C7010995B701CE0108960E9402
:101EF000000BC7010E944B0B8C859D85E0916D0501
:101F0000F0916E05892B09F492CF60E571E0C7016D
:101F10000E94710C8C859D850817190708F061C017
:101F2000B801CE0108960E94CF03482EE0E26BE292
:101F30008E1749F0682E880F7708C3010E94D723B7
:101F4000892B39F0642DC7010E94EA0B0F5F1F4FE8
:101F5000E1CF842D8F7050E3452E8A3014F047E393
:101F6000442E480EB30134E0759567953A95E1F734
:101F70006F7020E3622E6A3014F097E3692E660ECC
:101F800065E2C7010E94EA0B662DC7010E94EA0BB9
:101F9000D9CF60E571E0CE0108960E94280C8D2D06
:101FA0000E941C02BC01CE0108960E94BA0B36CFDB
:101FB00060E571E0CE0108960E94280C8D2D0E94EC
:101FC0008901F0CF80915E058823A1F0E091710531
:101FD000F0917205309709F421CF4D2D6FE4C701C0
:101FE0000995B701CE0108960E94000BC7010E9417
:101FF0004B0B14CF8D2D90E0FC01ED51FE4F649101
:10200000FC01E153FE4FE491F0E0EE0FFF1FE554B9
:10201000FE4F8591949100E412E42FE030E0462FCA
:102020000E944713611571058105910529F06F5FC5
:102030007F4F8F4F9F4F9F70072E000C880B990B7F
:102040000E94421F23E333E34BEF50E40E94202120
:102050002B013C0160E571E0CE0108960E94280C3E
:10206000C301B2010E9492219ECF88859985309745
:1020700011F4FC01DFCEBF010E940024892B09F07E
:10208000DDCECE0108960E944B0BCE010E960E942B
:102090004B0BCE0144960E944B0BCE014A960E94F8
:1020A0004B0BA40161E28FE595E00E94E40A8C01EC
:1020B000019609F086C1B1C1F6E5CF121DC00091AD
:1020C0006F051091700501151105F9F21A82198238
:1020D0001C821B821E821D826E857F8561157105A3
:1020E00021F0A301C7010E94070CA7016D2D86E511
:1020F000F8010995C701C7CFF4E5CF125FC0609022
:102100006F05709070056114710409F4BECF60E52D
:1021100071E0C7010E94710C10E000E08A899B8980
:102120000817190708F045C0B801CE010E960E94A5
:10213000CF0360E28B32B9F1682F8532A1F5B80187
:102140006F5F7F4FCE010E960E94CF03C82E0E5FA9
:102150001F4FB801CE010E960E94CF0320ED2C0D2B
:102160002A3060F09FE99C0D29EA963030F09FEB11
:102170009C0D20E0963010F429EC2C0D90E1299F65
:102180009001112460ED680F6A3060F09FE9980FAC
:1021900069EA963030F09FEB980F60E0963010F4CB
:1021A00069EC680F622BC7010E94EA0B0F5F1F4F9B
:1021B000B5CFA7016D2D84E5F3019BCFF1E5CF12DB
:1021C0000FC08E859F85009731F00E94221B672BE0
:1021D000682B692BE9F560E08D2D0E94B20155CF87
:1021E0008FE4C81252CF80915E058823D9F0009108
:1021F0006F05109170050115110509F446CF1A827B
:1022000019821C821B821E821D826E857F8561154C
:10221000710521F0A301C7010E94070CA7016D2DD4
:102220008FE466CF8E859F85C12C712C009721F09D
:102230000E94221BC62E772E0C2D172D61E08D2DAE
:102240000E94E0010115110531F20F3F110511F453
:1022500061E0C2CFED2DF0E0E955FE4FE491E330AF
:1022600029F140F4E130C1F0E230D9F00038110535
:102270007CF7B1CFE73031F1E83061F1E430B1F70C
:10228000809180008062809380008C2D972D9093A8
:102290008B0080938A00F9CE84B5806884BDC7BC6A
:1022A000F4CE84B5806284BDC8BCEFCE809180003E
:1022B0008068809380008C2D972D90938900809367
:1022C0008800E3CE8091B00080688093B000C09217
:1022D000B300DBCE8091B00080628093B000C092EA
:1022E000B400D3CE8C859D850817190768F4B80112
:1022F000CE0108960E94CF03682F81E295E00E94EC
:1023000007050F5F1F4FEECF66E972E0C7010E941D
:10231000710C68EE73E0C7010E94EA0C182FC70128
:102320000E944B0B112361F04091690550916A05A1
:10233000609165057091660581E295E00E94E10378
:1023400068E972E0C7010E94710C68EE73E0C70192
:102350000E94EA0CC7010E944B0BCE0108960E9416
:102360004B0B6BE972E081E295E00E943D08B501FC
:1023700081E295E00E940108A5960FB6F894DEBFB1
:102380000FBECDBFDF91CF911F910F91FF90EF90C6
:10239000DF90CF90BF90AF909F908F907F906F9085
:1023A0005F904F903F9008956115710509F0CBCC77
:1023B000C7010E944B0B60E571E0CE0180960E9440
:1023C000710C6801FFEFCF1ADF0AA60164E28FE506
:1023D00095E00E94E40A4C01801B910B06970CF4D7
:1023E00060CE9401A6016FE575E0CE014A960E9489
:1023F000A40C70E060E0CE014A960E94CF03C82E84
:1024000083E4C812B9CC69E672E085E695E00E94E3
:10241000280CCE014A960E944B0BCE018096A6CC8A
:10242000CF938635A1F4C62FFA0180819181009760
:1024300081F00E941E1BC03250F424E0C29FF001C4
:102440001124E456FC4F6083718382839383CF9180
:10245000089560E070E0CB01EECF1F920F920FB6AF
:102460000F9211242F933F938F939F93AF93BF931A
:1024700080911D0490911E04A0911F04B09120042E
:1024800030911C0423E0230F2D3758F50196A11D30
:10249000B11D20931C0480931D0490931E04A093EF
:1024A0001F04B09320048091210490912204A091F4
:1024B0002304B09124040196A11DB11D8093210431
:1024C00090932204A0932304B0932404BF91AF916E
:1024D0009F918F913F912F910F900FBE0F901F9062
:1024E000189526E8230F0296A11DB11DD2CF1F9289
:1024F0000F920FB60F9211242F933F934F935F9338
:102500006F937F938F939F93AF93BF93EF93FF93BB
:1025100085E294E00E945F04FF91EF91BF91AF913B
:102520009F918F917F916F915F914F913F912F91EB
:102530000F900FBE0F901F9018951F920F920FB61D
:102540000F9211242F938F939F93EF93FF93E0911A
:102550003504F09136048081E0913B04F0913C0415
:1025600082FD1BC0908180913E048F5F8F7320910C
:102570003F04821741F0E0913E04F0E0EB5DFB4F39
:10258000958F80933E04FF91EF919F918F912F91B2
:102590000F900FBE0F901F9018958081F4CF1F925F
:1025A0000F920FB60F9211242F933F934F935F9387
:1025B0006F937F938F939F93AF93BF93EF93FF930B
:1025C000E0919203F0919303309749F0A685B78587
:1025D0008585968D91FF14C09C918923A1F4FF916C
:1025E000EF91BF91AF919F918F917F916F915F918B
:1025F0004F913F912F910F900FBE0F901F90189504
:102600009C91892361F7A389B4899C9185898095E0
:1026100089238C93868997890197F1F7608D718D55
:10262000A685B785558538E020E0CB010197F1F705
:10263000822F90E095958795282F4C91452309F09E
:102640002068315091F7868D81FD2095809191030E
:1026500090E001968F73992730919003381799F085
:10266000A0919103B0E0A05BBC4F2C9380939103A9
:10267000828D938D0197F1F7A389B4898C91958907
:10268000892B8C93ACCF868D8160868FF1CFCF92D2
:10269000DF92EF92FF920F931F93E82FF92F05C05F
:1026A000015011092109310961F190819623941794
:1026B000B9F305C0015011092109310911F19081C7
:1026C00096239413F7CFC12CD12CE12CF12C0AC006
:1026D0008FEFC81AD80AE80AF80A0C151D052E054E
:1026E0003F0579F080818623841791F36C2D7D2D31
:1026F0008E2D9F2D1F910F91FF90EF90DF90CF9027
:10270000089560E070E080E090E01F910F91FF90ED
:10271000EF90DF90CF900895CF92DF92EF92FF92EB
:10272000109228041092270498EEC92E93E0D92E17
:10273000E12CF12CC0922904D0922A04E0922B04BF
:10274000F0922C0482E291E0909326048093250479
:1027500085EC90E0909332048093310484EC90E017
:10276000909334048093330480EC90E0909336048B
:102770008093350481EC90E0909338048093370483
:1027800082EC90E090933A048093390486EC90E0D8
:1027900090933C0480933B0410923E0410923F04BB
:1027A000109240041092410460E571E088E595E0E4
:1027B0000E94710C10925E0560E571E08FE595E076
:1027C0000E94710C60E571E085E695E00E94710C55
:1027D00080E091E090936C0580936B0588EA92E02D
:1027E00090936E0580936D051092430510924205FB
:1027F00086E491E0909341058093400589E08093C1
:1028000044058FEF8093450588E08093460587E077
:102810008093470586E08093480585E080934905CD
:1028200084E080934A0510924B0510924C0510925B
:102830004D0510924E0510924F0581E00E94BA0698
:102840001092240510922305C0922505D0922605EA
:10285000E0922705F092280584E391E09093220509
:1028600080932105109238051092370510923A0591
:102870001092390510923C0510923B0510923E05CE
:1028800010923D0560913F056E7F6D7F60933F051F
:102890006695617081E0682783E00E94B20161E083
:1028A00083E00E94E001E6EEF1E0E491E09331057F
:1028B000E2EDF1E0E491F0E0EE0FFF1FEB53FE4F8D
:1028C00085919491909333058093320560E082E086
:1028D0000E94E00180913F0581FD04C061E082E03B
:1028E0000E94B20182E080932D05E5EEF1E0E491D3
:1028F000E0932E05E1EDF1E0E491F0E0EE0FFF1F33
:10290000E554FE4F859194919093300580932F0567
:102910008EE095E00E949B038BEF94E00E949B0366
:1029200088EE94E00E949B0385ED94E00E949B0357
:1029300082E18093C7048BE08093C804E5EFF1E067
:10294000E491E093C904E1EEF1E0E491E093CA047C
:1029500080E89EE3A0E0B0E08093CF049093D004A1
:10296000A093D104B093D204FF90EF90DF90CF906A
:102970000895CF93DF93CDB7DEB72C970FB6F894B9
:10298000DEBF0FBECDBF789484B5826084BD84B5B0
:10299000816084BD85B5826085BD85B5816085BD5A
:1029A00080916E00816080936E0010928100809112
:1029B000810082608093810080918100816080939A
:1029C0008100809180008160809380008091B100BF
:1029D00084608093B1008091B00081608093B000EA
:1029E00080917A00846080937A0080917A0082607E
:1029F00080937A0080917A00816080937A00809140
:102A00007A00806880937A001092C100E0913504CA
:102A1000F091360482E08083E0913104F091320439
:102A20001082E0913304F09134048FEC8083109293
:102A30003D04E0913904F0913A0486E08083E0910E
:102A40003704F0913804808180618083E0913704FD
:102A5000F0913804808188608083E0913704F091A0
:102A60003804808180688083E0913704F0913804D5
:102A700080818F7D808310923C0510923B051092DF
:102A80003A051092390510923805109237058DE9F4
:102A900091E090933E0580933D0590912D059631F0
:102AA00008F047C02DEB30E0309338052093370510
:102AB0002BE931E030933A05209339052CE231E0DF
:102AC00030933C0520933B052091680084E09830CA
:102AD00048F031E09E3008F430E081E001C0880F1A
:102AE0003A95EAF7822B809368002DE630E0983023
:102AF00050F02BE630E09E3030F02CE630E096319E
:102B000010F030E020E03093350520933405292F74
:102B100030E0983008F088C081E001C0880F9A95B5
:102B2000EAF78093360580913D0590913E05019727
:102B3000F1F780913B0590913C05892B49F1E0919B
:102B40009203F091930325E0E132F20709F1309707
:102B500039F0A389B4899C918589809589238C93C8
:102B600080913F058E7F80933F05109291031092D4
:102B7000900381E295E09093930380939203E09118
:102B80003405F0913505808190913605892B80833D
:102B900082E390E0A0E0B0E08093250590932605C5
:102BA000A0932705B093280580E192E190937005EA
:102BB00080936F0586E89CE0909372058093710581
:102BC00060E071E08FE595E00E94530B60E071E0FA
:102BD00085E695E00E94530B6DEA72E0CE01019606
:102BE0000E94710C62EB72E0CE0107960E94710C9C
:102BF000BE016F5F7F4FCE0107960E94A70B0E9418
:102C00007507CE0107960E944B0BCE0101960E94DC
:102C10004B0B81E295E00E946305892B91F081E2E4
:102C200095E00E947905F5CF9E3040F42850310997
:102C300081E001C0880F2A95EAF773CF2E50310941
:102C4000F7CF61EC72E081E295E00E94290868E923
:102C500072E0CE0101960E94710C68EE73E0CE0125
:102C600001960E94EA0CCE0101960E944B0B68EC83
:102C700072E081E295E00E94290868E972E0CE01E5
:102C800001960E94710C68EE73E0CE0101960E94DD
:102C9000EA0CCE0101960E944B0B64ED72E081E2DA
:102CA00095E00E943D086DEA72E081E295E00E94A5
:102CB0003D086FED72E081E295E00E943D086DEA0B
:102CC00072E081E295E00E943D0861EE72E081E2EF
:102CD00095E00E94290868E972E0CE0101960E9401
:102CE000710C60E177E2CE0101960E94EA0CCE0100
:102CF00001960E944B0B63EE72E081E295E00E9428
:102D00003D086FEE72E081E295E00E943D0861EEC1
:102D100072E081E295E00E94290868E972E0CE0144
:102D200001960E94710C68E873E1CE0101960E9441
:102D3000EA0CCE0101960E944B0B6DEF72E081E22E
:102D400095E00E94290868E972E0CE0101960E9490
:102D5000710C68EB7BE0CE0101960E94EA0CCE017B
:102D600001960E944B0B68E073E081E295E00E94BF
:102D7000290868E972E0CE0101960E94710C68EEA4
:102D800073E0CE0101960E94EA0CCE0101960E94EA
:102D90004B0B61E173E081E295E00E94290868E94C
:102DA00072E0CE0101960E94710C68EE73E0CE01D4
:102DB00001960E94EA0CCE0101960E944B0B6DE138
:102DC00073E081E295E00E943D0860E47FE181E2EA
:102DD00095E00E94010868E972E0CE0101960E9428
:102DE000710C68EE73E0CE0101960E94EA0CCE01F0
:102DF00001960E944B0B62E08091C7040E94E001A3
:102E00000E948902605D7740810991096093CB043B
:102E10007093CC048093CD049093CE0487E3809389
:102E2000D40482E00E94BA0661E08AE00E94E001D8
:102E300060E08AE00E94B20161E08BE00E94E00164
:102E400060E08BE00E94B20161E08CE00E94E00152
:102E500060E08CE00E94B20161E08DE00E94E00140
:102E600060E08DE00E94B20160E08EE00E94E0012F
:102E700060E08FE00E94E0018EE59AE090931D05EE
:102E800080931C0585E498E090930A0580930905DA
:102E90008DE898E09093F7048093F60484E09AE03C
:102EA0009093E4048093E30460910C0170910D0110
:102EB000072E000C880B990B0E94421F6093C403DD
:102EC0007093C5038093C6039093C70360910A0172
:102ED00070910B01072E000C880B990B0E94421F6A
:102EE0006093C8037093C9038093CA039093CB0384
:102EF0006091080170910901072E000C880B990B55
:102F00000E94421F6093CC037093CD038093CE0345
:102F10009093CF0360919A0370919B03072E000C4E
:102F2000880B990B0E94421F6093EC037093ED0392
:102F30008093EE039093EF0360919803709199034F
:102F4000072E000C880B990B0E94421F6093F00320
:102F50007093F1038093F2039093F30360919603CF
:102F600070919703072E000C880B990B0E94421F4B
:102F70006093F4037093F5038093F6039093F70343
:102F80006091940370919503072E000C880B990BA8
:102F90000E94421F6093F8037093F9038093FA0331
:102FA0009093FB0300E81EEE80E6C82E8AEED82E32
:102FB00090E0E92E90E0F92E0E94610D0E948902B6
:102FC0004B015C0128EE820E23E0921EA11CB11C75
:102FD0000E948902681579058A059B0518F40E94EC
:102FE000610DF6CF8090C4039090C503A090C603F6
:102FF000B090C70360910C0170910D01072E000C79
:10300000880B990B0E94421F9B01AC01C501B401C2
:103010000E943B1F882359F1B501A401CE010196FE
:103020000E94410C6DE273E0CE0107960E94710C84
:10303000BE016F5F7F4FCE0107960E94A70B0E94D3
:103040007507CE0107960E944B0BCE0101960E9498
:103050004B0B6091C4037091C5038091C60390919E
:10306000C7030E94922170930D0160930C01809020
:10307000C8039090C903A090CA03B090CB0360919D
:103080000A0170910B01072E000C880B990B0E940E
:10309000421F9B01AC01C501B4010E943B1F882364
:1030A00059F1B501A401CE0101960E94410C62E3E1
:1030B00073E0CE0107960E94710CBE016F5F7F4FD7
:1030C000CE0107960E94A70B0E947507CE010796B6
:1030D0000E944B0BCE0101960E944B0B6091C803DE
:1030E0007091C9038091CA039091CB030E949221F1
:1030F00070930B0160930A018090CC039090CD03F4
:10310000A090CE03B090CF036091080170910901A7
:10311000072E000C880B990B0E94421F9B01AC01EB
:10312000C501B4010E943B1F882359F1B501A401D8
:10313000CE0101960E94410C67E373E0CE01079631
:103140000E94710CBE016F5F7F4FCE0107960E94F7
:10315000A70B0E947507CE0107960E944B0BCE016C
:1031600001960E944B0B6091CC037091CD0380912E
:10317000CE039091CF030E94922170930901609336
:1031800008018090EC039090ED03A090EE03B090C6
:10319000EF0360919A0370919B03072E000C880B3C
:1031A000990B0E94421F9B01AC01C501B4010E9412
:1031B0003B1F8823D1F1B501A401CE0101960E94E5
:1031C000410C6CE373E0CE0107960E94710CBE01C6
:1031D0006F5F7F4FCE0107960E94A70B0E94750775
:1031E000CE0107960E944B0BCE0101960E944B0B1D
:1031F0006091EC037091ED038091EE039091EF03E9
:103200000E94922170939B0360939A03072E000CF7
:10321000880B990B609F9001619F300D709F300D5E
:10322000112430930701209306018090F0039090C1
:10323000F103A090F203B090F303609198037091B2
:103240009903072E000C880B990B0E94421F9B01CB
:10325000AC01C501B4010E943B1F8823D1F1B50127
:10326000A401CE0101960E94410C61E473E0CE01FD
:1032700007960E94710CBE016F5F7F4FCE010796CB
:103280000E94A70B0E947507CE0107960E944B0B68
:10329000CE0101960E944B0B6091F0037091F103F7
:1032A0008091F2039091F3030E949221709399030D
:1032B00060939803072E000C880B990B609F900178
:1032C000619F300D709F300D1124309305012093C4
:1032D00004018090F4039090F503A090F603B09061
:1032E000F7036091960370919703072E000C880BEB
:1032F000990B0E94421F9B01AC01C501B4010E94C1
:103300003B1F8823D1F1B501A401CE0101960E9493
:10331000410C66E473E0CE0107960E94710CBE0179
:103320006F5F7F4FCE0107960E94A70B0E94750723
:10333000CE0107960E944B0BCE0101960E944B0BCB
:103340006091F4037091F5038091F6039091F70377
:103350000E9492217093970360939603072E000CAE
:10336000880B990B609F9001619F300D709F300D0D
:10337000112430930301209302018090F803909070
:10338000F903A090FA03B090FB036091940370914D
:103390009503072E000C880B990B0E94421F9B017E
:1033A000AC01C501B4010E943B1F8823D1F1B501D6
:1033B000A401CE0101960E94410C6BE473E0CE01A2
:1033C00007960E94710CBE016F5F7F4FCE0107967A
:1033D0000E94A70B0E947507CE0107960E944B0B17
:1033E000CE0101960E944B0B6091F8037091F90396
:1033F0008091FA039091FB030E94922170939503B0
:1034000060939403072E000C880B990B6C9D900120
:103410006D9D300D7C9D300D112430930101209362
:1034200000018091060190910701092E000CAA0B62
:10343000BB0B8093100590931105A0931205B093D8
:103440001305409114055091150560911605709172
:103450001705480F591F6A1F7B1F4093180550938B
:10346000190560931A0570931B058093FD049093D2
:10347000FE04A093FF04B093000540910105509114
:1034800002056091030570910405840F951FA61F26
:10349000B71F8093050590930605A0930705B09389
:1034A00008058091040190910501092E000CAA0BDA
:1034B000BB0B8093EA049093EB04A093EC04B093CD
:1034C000ED044091EE045091EF046091F00470918E
:1034D000F104840F951FA61FB71F8093F2049093E9
:1034E000F304A093F404B093F50480910201909149
:1034F0000301092E000CAA0BBB0B8093D7049093F9
:10350000D804A093D904B093DA044091DB0450911D
:10351000DC046091DD047091DE04840F951FA61F0A
:10352000B71F8093DF049093E004A093E104B0936D
:10353000E20488EE94E00E940006882321F088EEE1
:1035400094E00E94CC0585ED94E00E94000688235B
:1035500021F085ED94E00E94CC058BEF94E00E9471
:103560000006882321F08BEF94E00E94CC058EE0CA
:1035700095E00E940006882321F08EE095E00E94ED
:10358000CC056EE471E085E294E00E94660768EE87
:1035900073E080E090E00E945602E114F10409F427
:1035A0000BCD0E944B04882309F406CD0E94000035
:1035B00003CD84E391E090932205809321058091CF
:1035C0009203909193038152954071F4E0913405F8
:1035D000F09135059081809136058095892380830F
:1035E000109293031092920385E695E00E944B0B94
:1035F0008FE595E00E944B0B88E595E00C944B0B12
:10360000EF920F931F93CF93DF93E80134E047FDD0
:1036100034E1042E000C550B57FF03C05195419522
:103620005109E32E022F242FAE010E94831BCE01ED
:10363000DF91CF911F910F91EF9008956627772723
:103640000C94E21C1F93FC0199278827BC01E89485
:1036500011911032E9F3193010F01E30C8F31B320B
:1036600051F01D3249F4689406C00E94541B610F4A
:10367000711D811D911D119110531A30B0F33EF44C
:1036800090958095709561957F4F8F4F9F4F1F91BB
:103690000895BB274A3031F4992322F4BDE2909576
:1036A00081959F4F0C946A1B592F482F372F262F37
:1036B000660F771F881F991F660F771F881F991F36
:1036C000620F731F841F951F660F771F881F991F36
:1036D0000895BB27FB015527AA27880F991FAA1F0A
:1036E000A41710F0A41B83955051B9F7A05DAA331D
:1036F00008F0A95DA193009779F7B111B1931192E8
:10370000CB010C942B1FA9E0B0E0E9E8FBE10C949D
:1037100073206A01F22EB02E102FFBE3AF2EA016FD
:1037200008F41BE31F5F012F27E0AE014F5F5F4FDF
:103730000E94321EBC018981982F9970913009F442
:103740003FC09BE2E1FC04C09E2D9170E0FC3AC0BA
:103750005E2D5071E82FE87083FF46C084E0911120
:1037600001C083E0EF2DE81B8F1508F0E0E0D601E3
:103770008E2F20E2552351F1992329F0D6019C93F5
:10378000C60101966C0196012D5F3F4FE2FE24C0F9
:103790008EE4D6018C9391E411969C931197129626
:1037A0008C93D9018E2F90E281111BC0E20FF32F71
:1037B000F11D10828EEF9FEF2996ECE00C948F2084
:1037C0009DE2C6CF90E2C4CF2D9381508111FCCFF2
:1037D000CE0ED11CE0E0D0CF8EE6D6018C9391E6E0
:1037E000DBCF9D938150E0CF482F447082FF3DC0D6
:1037F00084E0911101C083E08F1510F4EF2DE81BD8
:10380000D6018E2F20E2552309F1992329F0D60104
:103810009C93C60101966C0196012D5F3F4FE2FE1D
:103820001BC089E4D6018C938EE411968C9311977A
:1038300086E412968C93D9018E2F90E2882309F4A6
:10384000B5CF9D938150FACF2D9381508111FCCF3C
:10385000CE0ED11CE0E0D9CF89E6D6018C938EE65E
:1038600011968C93119786E6E4CF9B0177FF02C0F7
:1038700030E020E0A1E0B0E0911102C0B0E0A0E0B3
:10388000F9013196AE0FBF1F8B2C912CBB2009F490
:1038900061C05401EFEFAE1ABE0AAA0DBB1DFA16A5
:1038A0001B0619F014F04F2D4A1B511188C0E3FC80
:1038B00059C07601A42FB0E2A1114FC0C40ED11C93
:1038C000992309F45BC040E0D6011196F60190837C
:1038D0006D01552309F448C0012F060F9A81582F16
:1038E000507184FF03C0913309F4015010160CF09D
:1038F00047C0093008F008E0EEE2FE2E5B01A01A96
:10390000B10885019194819491082F3F320729F4E1
:10391000D601FC92F60131966F016217730794F19C
:10392000021713077CF5DB01A21BB30BAA24A39497
:10393000B12CAC0EBD1EAA0DBB1D11968C91215051
:103940003109D601119628153905F4F0F601808366
:103950006D01DBCFB12CA12CA0CFF701B1937F017A
:10396000A150AACF9111B0CFD601942F50E302C03D
:103970005D9391509111FCCFC40ED11C40E0ACCFAF
:1039800001E0BACF80E3DBCF6217730731F49633DF
:1039900088F4953311F4552369F0F6018083FD0115
:1039A000842F90E2811108C0A40FB11D1C9290E0F9
:1039B00080E002CF81E3F1CF91938150F3CF911159
:1039C00083CF8ACFB0E0A0E0E8EEFCE10C94732056
:1039D0005C017B016115710519F0DB018D939C93EE
:1039E00085010F5F1F4FF501D0818D2F90E00E9460
:1039F0000A1F6C01892BB9F5DD32B9F50F5F1F4F36
:103A0000D5011196DC91C1E05801F1E0AF1AB1087F
:103A100043E050E060E770E0C5010E94131F892B6E
:103A200069F5680182E0C80ED11C45E050E06BE604
:103A300070E0C6010E94131F892B21F4680197E0F2
:103A4000C90ED11CE114F10419F0D701CD92DC921A
:103A500060E070E080E89FEFC111FFC060E070E0BF
:103A600080E89FE7FAC05801BBCFDB3229F485011B
:103A70000E5F1F4FF501D181C0E0C6CF43E050E09B
:103A800068E670E0C5010E94131F892BE9F0F80178
:103A900010E000E020E030E0A9015F01B0ED8B2EE6
:103AA0008D0E89E08815C8F19C2E689491F88C2FB2
:103AB0008870C2FF16C0811102C00F5F1F4F319680
:103AC000D501DC91C92DE9CFE114F10429F00E5F95
:103AD0001F4FF7011183008360E070E080EC9FE7E7
:103AE000BCC0882311F001501109A5E0B0E00E948C
:103AF00062209B01AC01220F331F441F551F280D6C
:103B0000311D411D511D283999E93907490799E1AE
:103B10005907A8F2C6609C2ED2CFAEEF8A1206C01B
:103B2000C3FD3CC09C2E689493F8C9CFDF7DD5348B
:103B3000A9F580818D3239F4C061DF01129681814F
:103B400062E070E006C0DF018B32C1F3119661E0E4
:103B500070E080535D01A61AB70A8A30F8F4E0E8F5
:103B6000CE16ECE0DE065CF4B601660F771F660F3A
:103B7000771FC60ED71ECC0CDD1CC80ED11C5D01F4
:103B8000FFEFAF1ABF0A8C9180538A30A8F1C4FFAF
:103B900003C0D194C194D1080C0D1D1DC1FF09C0F3
:103BA000E114F10431F081E0A81AB108D701AD9217
:103BB000BC92CA01B9010E94401FC370C33009F40E
:103BC00090584B015C0120E030E0A9010E943B1FAE
:103BD000882309F440C0CFE9D0E017FF05C0119554
:103BE00001951109C7E8D0E06E01B8E1CB1AD10800
:103BF00080E2E82EF12C0FC0D501B1CFFE01259156
:103C00003591459154910E191F09C501B4010E94C7
:103C1000A11F4B015C01D501C4010E151F0574F7EE
:103C20002497F594E794CC16DD06A9F78A2F880F20
:103C30008B2F881F8F3F49F020E030E0A901C5019C
:103C4000B4010E943B1F811106C082E290E0909374
:103C5000740580937305C501B401CDB7DEB7ECE000
:103C60000C948F20283008F027E03327DA01990FD1
:103C7000311D87FD916000966105710539F4326050
:103C80002E5F3D9330E32A95E1F708959F3F30F092
:103C900080387105610509F03C5F3C5F3D939130D0
:103CA00008F08068911DDF93CF931F930F93FF92CD
:103CB000EF92192F987F9695E92F96959695E90F93
:103CC000FF27E350FF4F99273327EE24FF24A70156
:103CD000E70105900894079428F4360FE71EF81EB4
:103CE000491F511D660F771F881F991F0694A1F762
:103CF0000590079428F4E70EF81E491F561FC11DB2
:103D0000770F881F991F661F0694A1F705900794E7
:103D100028F4F80E491F561FC71FD11D880F991F81
:103D2000661F771F0694A1F70590079420F4490FAA
:103D3000561FC71FD81F990F661F771F881F06942D
:103D4000A9F784911095177041F0D695C7955795AE
:103D50004795F794E7941A95C1F7E3EAF0E0689481
:103D60001590159135916591959105907FE2739528
:103D7000E118F10A430B560BC90BD009C0F7E10C4F
:103D8000F11E431F561FC91FD01D7EF4703311F45E
:103D90008A95E6CFE894015030F0080F0AF4002726
:103DA000021708F4202F2395022F7A3328F079E3A5
:103DB0007D932A95E9F710C07D932A9589F606949C
:103DC00097956795379517951794E118F10A430B66
:103DD000560BC90BD00998F023957E9173957A33D1
:103DE00008F070E37C932013B8F77E9170617D93A7
:103DF00030F0839571E37D9370E32A95E1F7112408
:103E0000EF90FF900F911F91CF91DF91992787FD40
:103E10009095089591110C940E20803219F08950DC
:103E20008550C8F70895FB01DC014150504088F0EF
:103E30008D9181341CF08B350CF4805E659161347A
:103E40001CF06B350CF4605E861B611171F3990BED
:103E50000895881BFCCFDC01FC01672F719177234B
:103E6000E1F7329704C07C916D9370836291AE1735
:103E7000BF07C8F308950E947D1F08F481E00895EC
:103E8000E89409C097FB3EF49095809570956195F4
:103E90007F4F8F4F9F4F9923A9F0F92F96E9BB27AA
:103EA0009395F695879577956795B795F111F8CF26
:103EB000FAF4BB0F11F460FF1BC06F5F7F4F8F4F91
:103EC0009F4F16C0882311F096E911C0772321F087
:103ED0009EE8872F762F05C0662371F096E8862F1F
:103EE00070E060E02AF09A95660F771F881FDAF776
:103EF000880F9695879597F90895990F0008550FA3
:103F0000AA0BE0E8FEEF16161706E807F907C0F05F
:103F100012161306E407F50798F0621B730B840B67
:103F2000950B39F40A2661F0232B242B252B21F441
:103F300008950A2609F4A140A6958FEF811D811DE1
:103F400008950E94B41F0C9428200E941A2038F073
:103F50000E94212020F0952311F00C9411200C9444
:103F6000172011240C945C200E94392070F3959F37
:103F7000C1F3950F50E0551F629FF001729FBB2760
:103F8000F00DB11D639FAA27F00DB11DAA1F649FFC
:103F90006627B00DA11D661F829F2227B00DA11DAF
:103FA000621F739FB00DA11D621F839FA00D611D35
:103FB000221F749F3327A00D611D231F849F600D56
:103FC000211D822F762F6A2F11249F5750409AF07F
:103FD000F1F088234AF0EE0FFF1FBB1F661F771F0B
:103FE000881F91505040A9F79E3F510580F00C94D6
:103FF00011200C945C205F3FE4F3983ED4F3869547
:1040000077956795B795F795E7959F5FC1F7FE2B75
:10401000880F911D9695879597F908959927882778
:10402000089597F99F6780E870E060E008959FEF3A
:1040300080EC089500240A9416161706180609063F
:10404000089500240A94121613061406050608950E
:10405000092E0394000C11F4882352F0BB0F40F496
:10406000BF2B11F460FF04C06F5F7F4F8F4F9F4FD6
:10407000089557FD9058440F551F59F05F3F71F058
:104080004795880F97FB991F61F09F3F79F08795BF
:104090000895121613061406551FF2CF4695F1DF48
:1040A00008C0161617061806991FF1CF86957105D8
:1040B000610508940895E894BB2766277727CB010C
:1040C00097F908950E94A420A59F900DB49F900D8C
:1040D000A49F800D911D112408952F923F924F921D
:1040E0005F926F927F928F929F92AF92BF92CF9288
:1040F000DF92EF92FF920F931F93CF93DF93CDB791
:10410000DEB7CA1BDB0B0FB6F894DEBF0FBECDBF08
:1041100009942A88398848885F846E847D848C84D9
:104120009B84AA84B984C884DF80EE80FD800C81E2
:104130001B81AA81B981CE0FD11D0FB6F894DEBFC5
:104140000FBECDBFED010895A29FB001B39FC00186
:10415000A39F700D811D1124911DB29F700D811DB3
:104160001124911D08955058BB27AA270E94CB20E7
:104170000C9428200E941A2038F00E94212020F060
:1041800039F49F3F19F426F40C9417200EF4E095AF
:10419000E7FB0C941120E92F0E94392058F3BA173D
:1041A000620773078407950720F079F4A6F50C944D
:1041B0005B200EF4E0950B2EBA2FA02D0B01B90158
:1041C00090010C01CA01A0011124FF27591B99F08D
:1041D000593F50F4503E68F11A16F040A22F232F99
:1041E000342F4427585FF3CF469537952795A795E9
:1041F000F0405395C9F77EF41F16BA0B620B730B90
:10420000840BBAF09150A1F0FF0FBB1F661F771F00
:10421000881FC2F70EC0BA0F621F731F841F48F4B5
:10422000879577956795B795F7959E3F08F0B0CF3E
:104230009395880F08F09927EE0F97958795089525
:104240000E9434210C9428200E94212058F00E94C2
:104250001A2040F029F45F3F29F00C9411205111ED
:104260000C945C200C9417200E94392068F3992349
:10427000B1F3552391F3951B550BBB27AA27621762
:104280007307840738F09F5F5F4F220F331F441F6F
:10429000AA1FA9F335D00E2E3AF0E0E832D09150A3
:1042A0005040E695001CCAF72BD0FE2F29D0660F90
:1042B000771F881FBB1F261737074807AB07B0E8D3
:1042C00009F0BB0B802DBF01FF2793585F4F3AF0D9
:1042D0009E3F510578F00C9411200C945C205F3FB8
:1042E000E4F3983ED4F3869577956795B795F7955F
:1042F0009F5FC9F7880F911D9695879597F9089547
:10430000E1E0660F771F881FBB1F621773078407E2
:10431000BA0720F0621B730B840BBA0BEE1F88F7F1
:10432000E09508950E9499216894B1110C945C2045
:1043300008950E94412088F09F5798F0B92F99273F
:10434000B751B0F0E1F0660F771F881F991F1AF080
:10435000BA95C9F714C0B13091F00E945B20B1E06A
:1043600008950C945B20672F782F8827B85F39F069
:10437000B93FCCF3869577956795B395D9F73EF419
:1043800090958095709561957F4F8F4F9F4F0895C1
:104390000E947D1F880B990B0895A1E21A2EAA1B7B
:1043A000BB1BFD010DC0AA1FBB1FEE1FFF1FA217E5
:1043B000B307E407F50720F0A21BB30BE40BF50BE2
:1043C000661F771F881F991F1A9469F7609570956B
:1043D000809590959B01AC01BD01CF010895EE0F32
:1043E000FF1F0590F491E02D09940F931F93CF9335
:1043F000DF938230910510F482E090E0E091770540
:10440000F091780530E020E0B0E0A0E0309799F43A
:104410002115310509F44AC0281B390B2430310518
:10442000D8F58A819B816115710589F1FB01938320
:104430008283FE0111C0408151810281138148179E
:104440005907E0F04817590799F4109761F0129650
:104450000C93129713961C933296CF01DF91CF9154
:104460001F910F9108950093770510937805F4CF6D
:104470002115310551F04217530738F0A901DB012E
:104480009A01BD01DF01F801C1CFEF01F9CF90938F
:10449000780580937705CDCFFE01E20FF31F81935E
:1044A00091932250310939832883D7CF2091750504
:1044B00030917605232B41F42091100130911101A8
:1044C000309376052093750520910E0130910F01F0
:1044D0002115310541F42DB73EB74091120150919D
:1044E0001301241B350BE0917505F0917605E21759
:1044F000F307A0F42E1B3F0B2817390778F0AC0107
:104500004E5F5F4F2417350748F04E0F5F1F5093E3
:10451000760540937505819391939FCFF0E0E0E09D
:104520009CCFCF93DF930097E9F0FC013297138281
:104530001282A0917705B0917805ED0130E020E07E
:104540001097A1F420813181820F931F209175056E
:10455000309176052817390709F061C0F093760588
:10456000E0937505DF91CF910895EA01CE17DF073B
:10457000E8F54A815B819E0141155105B1F7E901DA
:10458000FB83EA8349915991C40FD51FEC17FD07AE
:1045900061F4808191810296840F951FE9019983CE
:1045A0008883828193819B838A83F0E0E0E0129686
:1045B0008D919C9113970097B9F52D913C9111978E
:1045C000CD010296820F931F2091750530917605DB
:1045D0002817390739F6309751F51092780510925F
:1045E0007705B0937605A0937505BCCFD383C283BE
:1045F00040815181840F951FC817D90761F44E5F20
:104600005F4F88819981480F591F518340838A8168
:104610009B81938382832115310509F0B0CFF093FC
:104620007805E09377059ECFFD01DC01C0CF1382B2
:104630001282D7CFB0E0A0E0E0E2F3E20C946F206A
:104640008C01009751F4CB010E94F5218C01C80127
:10465000CDB7DEB7E0E10C948B20FC01E60FF71F2D
:104660009C0122503109E217F30708F49DC0D901DB
:10467000CD91DC911197C617D70798F0C530D105B9
:1046800030F3CE0104978617970708F3C61BD70BA4
:104690002297C193D1936D937C93CF010E94912275
:1046A000D6CF5B01AC1ABD0A4C018C0E9D1EA091A9
:1046B0007705B0917805512C412CF12CE12C109705
:1046C00031F580917505909176058815990509F069
:1046D0005CC04616570608F058C080910E019091B4
:1046E0000F01009741F48DB79EB740911201509190
:1046F0001301841B950BE817F90708F055C0F093D8
:104700007605E0937505F90171836083A0CF8D91E3
:104710009C91119712966C90129713967C90139718
:10472000A815B90559F56C0142E0C40ED11CCA1494
:10473000DB0420F1AC014A195B09DA0112961597E6
:1047400080F06282738251834083D9016D937C93A0
:10475000E114F10471F0D7011396FC93EE931297D4
:1047600076CF22968C0F9D1FF90191838083F301F0
:10477000EFCFF0937805E093770569CF4816590697
:1047800008F42C017D01D3019ACFCB010E94F521C1
:104790007C01009749F0AE01B8010E94EC23C801EA
:1047A0000E949122870153CF10E000E050CF911179
:1047B0000C940E2080538A5018F0865C0C94E423ED
:1047C000089585FD0C940E20806291110C940E20AA
:1047D00081568A51D8F70895FB01DC0102C001908F
:1047E0000D9241505040D8F70895FC0181918617F1
:1047F00021F08823D9F7992708953197CF0108959B
:10480000FB01DC018D91019080190110D9F3990B06
:104810000895FB01DC0101900D920020E1F708955D
:10482000FB01DC014150504048F001900D92002006
:10483000C9F701C01D9241505040E0F70895FB01B7
:1048400051915523A9F0BF01DC014D91451741114C
:10485000E1F759F4CD010190002049F04D91401548
:104860004111C9F3FB014111EFCF81E090E00197C5
:10487000089510E0CDEFD0E004C0FE010E94EF21CA
:0C4880002196CE3FD107C9F7F894FFCF76
:10488C00102710271027204EF401F4011E00000001
:10489C007905800000000000BD03EF05CC05000089
:1048AC0000008104E1030E04CE043F041D04310416
:1048BC00000000000705E1030C06060563057905F9
:1048CC00EE04000000006007E1030C06E0030D0A93
:1048DC0000575F6C6F770056616C766520697320AA
:1048EC006F70656E0050756D70696E6700576174FE
:1048FC006572202B0057617465723A2B0046616912
:10490C006C656420746F20726561642066726F6DD3
:10491C0020444854006572726F7220482F5400482E
:10492C00756D696469747944485431313D200020B7
:10493C00250054656D7065726174757265444854D8
:10494C0031313D2000204300482F543D002F0046BC
:10495C0061696C656420746F207265616420667295
:10496C006F6D2050686F746F7265736973746F72BA
:10497C00006572726F72004C696768743D20004C60
:10498C00616D703A2B004C616D703A2D0046616977
:10499C006C656420746F20726561642066726F6D43
:1049AC0020536F696C4D6F69737475726500536F2A
:1049BC00696C457272005761746572696E67004D5F
:1049CC006F6973747572653D2000536F696C3A2B77
:1049DC002020002B4950442C003A004530303D3704
:1049EC0024004530303D35240021433D5669727416
:1049FC0075696E6F434D20312E302E30000A526592
:104A0C0073706F6E7365203A200041542B434950EC
:104A1C0053454E443D003E004F4B0041542B4349FF
:104A2C0050434C4F53453D005F4E525F002A2A2A9B
:104A3C002A00436F6E6E656374696E6720746F2015
:104A4C000041542B474D520041542B43574D4F447A
:104A5C00453D310041542B43574A41503D220022E1
:104A6C002C220041542B4349505354413D220031D8
:104A7C0039322E3136382E302E3135300041542B10
:104A8C004349505354413F0041542B4349465352E0
:104A9C000041542B4349504D55583D310041542B46
:104AAC004349505345525645523D312C00563130F6
:104ABC003D005631313D005631323D005632303DCD
:104ACC00005632313D005632323D005632333D00F5
:00000001FF
